:020000040800F2
:1000000000000220C5840008858300088B83000857
:1000100091830008978300089D830008000000007A
:10002000000000000000000000000000A3830008A2
:10003000B183000800000000BF830008CD830008E2
:100040001585000815850008158500081585000828
:10005000158500081585000815850008D983000856
:10006000158500081585000811B50008F5830008FE
:1000700015850008158500081D84000831840008D6
:1000800015850008158500081585000815850008E8
:1000900015850008158500081585000845840008A9
:1000A00015850008158500081585000815850008C8
:1000B00015850008158500081585000815850008B8
:1000C00015850008158500081585000815850008A8
:1000D00015850008158500088D8400081585000821
:1000E0001585000815850008158500081585000888
:1000F0001585000815850008158500080984000885
:100100001585000815850008158500081585000867
:100110001585000815850008158500081585000857
:10012000158500081585000839B90008E5B80008EC
:10013000158500080000000000000000158500087B
:100140001585000815850008158500081585000827
:100150001585000815850008158500081585000817
:100160001585000815850008158500081585000807
:10017000158500081585000800000000000000003B
:08018000158500081585000833
:1001880010B5054C237833B9044B13B10448AFF3C9
:1001980000800123237010BD180C0020000000000F
:1001A80090BA000808B5034B1BB103490348AFF3E5
:1001B800008008BD000000001C0C002090BA000858
:1001C80053B94AB9002908BF00281CBF4FF0FF31B6
:1001D8004FF0FF3000F074B9ADF1080C6DE904CEB2
:1001E80000F006F8DDF804E0DDE9022304B070470A
:1001F8002DE9F047089D04468E46002B4DD18A42D2
:10020800944669D9B2FA82F252B101FA02F3C2F104
:10021800200120FA01F10CFA02FC41EA030E944095
:100228004FEA1C48210CBEFBF8F61FFA8CF708FBB6
:1002380016E341EA034306FB07F199420AD91CEB8E
:10024800030306F1FF3080F01F81994240F21C81C0
:10025800023E63445B1AA4B2B3FBF8F008FB103308
:1002680044EA034400FB07F7A7420AD91CEB04043D
:1002780000F1FF3380F00A81A74240F2078164440D
:10028800023840EA0640E41B00261DB1D440002392
:10029800C5E900433146BDE8F0878B4209D9002DF6
:1002A80000F0EF800026C5E9000130463146BDE880
:1002B800F087B3FA83F6002E4AD18B4202D38242EA
:1002C80000F2F980841A61EB030301209E46002D99
:1002D800E0D0C5E9004EDDE702B9FFDEB2FA82F2EE
:1002E800002A40F09280A1EB0C014FEA1C471FFA4C
:1002F8008CFE0126200CB1FBF7F307FB131140EA33
:1003080001410EFB03F0884208D91CEB010103F1FF
:10031800FF3802D2884200F2CB804346091AA4B2C1
:10032800B1FBF7F007FB101144EA01440EFB00FE95
:10033800A64508D91CEB040400F1FF3102D2A645FA
:1003480000F2BB800846A4EB0E0440EA03409CE799
:10035800C6F12007B34022FA07FC4CEA030C20FA46
:1003680007F401FA06F31C43F9404FEA1C4900FA66
:1003780006F3B1FBF9F8200C1FFA8CFE09FB1811E3
:1003880040EA014108FB0EF0884202FA06F20BD956
:100398001CEB010108F1FF3A80F08880884240F2A6
:1003A8008580A8F102086144091AA4B2B1FBF9F0EA
:1003B80009FB101144EA014100FB0EFE8E4508D9E5
:1003C8001CEB010100F1FF346CD28E456AD902386A
:1003D800614440EA0840A0FB0294A1EB0E01A1424F
:1003E800C846A64656D353D05DB1B3EB080261EBBD
:1003F8000E0101FA07F722FA06F3F1401F43C5E997
:10040800007100263146BDE8F087C2F12003D840CC
:100418000CFA02FC21FA03F3914001434FEA1C470E
:100428001FFA8CFEB3FBF7F007FB10360B0C43EA00
:10043800064300FB0EF69E4204FA02F408D91CEBB0
:10044800030300F1FF382FD29E422DD902386344AE
:100458009B1B89B2B3FBF7F607FB163341EA03414E
:1004680006FB0EF38B4208D91CEB010106F1FF389D
:1004780016D28B4214D9023E6144C91A46EA004694
:1004880038E72E46284605E70646E3E61846F8E626
:100498004B45A9D2B9EB020864EB0C0E0138A3E76F
:1004A8004646EAE7204694E74046D1E7D0467BE750
:1004B800023B614432E7304609E76444023842E7C8
:1004C800704700BF80B483B000AF786039607B6844
:1004D8001A693B6813403A689A420CBF012300230B
:1004E800DBB218460C37BD465DF8047B704780B414
:1004F80083B000AF786039607B683A685A6100BFA2
:100508000C37BD465DF8047B704780B483B000AFFC
:1005180078607B685B6918460C37BD465DF8047BDC
:10052800704780B483B000AF786039607B685A69DF
:100538003B6813403A689A420CBF01230023DBB2A0
:1005480018460C37BD465DF8047B704780B483B00D
:1005580000AF786039607B683A689A6100BF0C37F1
:10056800BD465DF8047B704780B483B000AF786007
:1005780039603B681A047B689A6100BF0C37BD4636
:100588005DF8047B704780B483B000AF78607B6807
:100598009B6803F08003802B01D1012300E0002336
:1005A80018460C37BD465DF8047B704780B582B0AD
:1005B80000AF7860786800F0EDF800BF0837BD46F6
:1005C80080BD80B500AF00F011F80346184680BD25
:1005D80080B500AF044806F0B3F90346184600F0AA
:1005E800D9F800BF80BD00BF000C002080B400AF68
:1005F800034B1B681846BD465DF8047B704700BF77
:100608000000060880B400AF034B1B681846BD46BF
:100618005DF8047B704700BF0400060880B400AF93
:10062800034B1B681846BD465DF8047B704700BF46
:100638000800060880B400AF034B1B681846BD4687
:100648005DF8047B704700BF0000080880B400AF65
:10065800034B1B681846BD465DF8047B704700BF16
:100668000400080880B500AFFFF7D8FF0346184616
:1006780080BD80B500AFFFF7C5FF0346184680BDB3
:1006880080B584B000AF00237B6000233B60FFF798
:10069800D1FF03467B60FFF7D9FF03463B603B1D54
:1006A80019461E4806F05AF93B4619461C4806F0FA
:1006B80055F90023FB600CE01A4AFB681344163313
:1006C8001978194AFB6813440A461A70FB68013303
:1006D800FB60FB68022BEFDD0323BB600CE0BB680B
:1006E800033B104A1344997E0F4ABB6813440A46D9
:1006F8001A70BB680133BB60BB68052BEFDD0322B2
:1007080006490A480BF0AAF9094B0322044918467E
:100718000BF0A4F900BF1037BD4680BD160D0020B0
:100728001A0D0020000D0020040C0020100D0020E0
:10073800130D002080B584B000AF0023FB600023B8
:10074800BB6000237B60FFF751FF0346FB60FFF7A8
:1007580059FF0346BB60FFF761FF03467B6007F163
:100768000C031946084806F0F9F807F1080319467A
:10077800064806F0F3F83B1D1946054806F0EEF862
:1007880000BF1037BD4680BD000D0020080D0020B9
:10079800040D00202DE9B04F82B000AF7860FFF75C
:1007A800C9FF08F0A9FC194BB322DA60022107201F
:1007B80008F004FE7B6800229A46934652465B4640
:1007C8001349022008F044FC124806F0B9F8034621
:1007D80000229846914642464B460F49022008F0AF
:1007E80037FC0E4806F0ACF8034600221C461546B6
:1007F80022462B460A49022008F02AFC08F09EFCF3
:1008080000BF0837BD46BDE8B08F00BF003C0240BE
:1008180000000608080D002004000608040D00204A
:10082800080006082DE9B04F82B000AF7860FFF7E6
:1008380081FF08F061FC194BB322DA60022107201E
:1008480008F0BCFD164806F07BF8034600229A46DD
:10085800934652465B461349022008F0F9FB7B6831
:1008680000229846914642464B460F49022008F01E
:10087800EFFB0E4806F064F8034600221C461546B6
:1008880022462B460A49022008F0E2FB08F056FCF3
:1008980000BF0837BD46BDE8B08F00BF003C02402E
:1008A800000D00200000060804000608040D0020C2
:1008B800080006082DE9B04F82B000AF7860FFF756
:1008C80039FF08F019FC194BB322DA60022107201E
:1008D80008F074FD164806F033F8034600229A46DD
:1008E800934652465B461349022008F0B1FB124872
:1008F80006F026F8034600229846914642464B46A3
:100908000E49022008F0A4FB7B6800221C4615460D
:1009180022462B460A49022008F09AFB08F00EFCF2
:1009280000BF0837BD46BDE8B08F00BF003C02409D
:10093800000D002000000608080D0020040006082D
:10094800080006082DE9B04384B000AF786008F0CD
:10095800D3FB1D4BB322DA600221082008F02EFDDC
:1009680007F10C030322796818460BF077F807F1B2
:100978000C03184605F0E4FF03460022984691460A
:1009880042464B461149022008F062FB7B68D91C9D
:1009980007F10C03032218460BF060F807F10C036B
:1009A800184605F0CDFF034600221C461546224690
:1009B8002B460749022008F04BFB08F0BFFB00BF9D
:1009C8001037BD46BDE8B083003C0240000008086F
:1009D8000400080880B500AF07F027FF00BF80BDFE
:1009E80080B500AF064B01229A774FF40071054895
:1009F800FFF7BAFD044B00221A7000BF80BD00BF8C
:100A0800000D002000040240340C002090B583B093
:100A180000AF0446084611461A462346FB710346B2
:100A2800BB710B467B7113463B71634B002283F805
:100A38002520614B002283F826205F4B002283F893
:100A480027205D4B002283F82820FB79002B24D037
:100A5800594B012283F8252002215848FFF776FDDB
:100A680001215648FFF780FD40215448FFF77CFDDF
:100A780080215248FFF778FD10215048FFF774FD98
:100A880020214E48FFF770FD4FF480714B48FFF767
:100A98006BFD08214948FFF759FDBB79002B2FD082
:100AA800454B012283F826204FF400514348FFF7B5
:100AB8004DFD4FF400414148FFF748FD4FF4804198
:100AC8003E48FFF751FD01213C48FFF74DFD40210D
:100AD8003A48FFF749FD80213848FFF745FD1021C6
:100AE8003648FFF741FD20213448FFF73DFD4FF41C
:100AF80080713248FFF738FD08213048FFF726FD9E
:100B08007B79002B2CD02C4B012283F82720012144
:100B18002B48FFF71BFD04212948FFF717FD022189
:100B28002748FFF721FD01212448FFF71DFD40213B
:100B38002248FFF719FD80212048FFF715FD1021F5
:100B48001E48FFF711FD20211C48FFF70DFD4FF44B
:100B580080711A48FFF708FD08211848FFF7F6FCCE
:100B68003B79002B24D0144B012283F82820042140
:100B78001248FFF7EBFC01211048FFF7F5FC402174
:100B88000E48FFF7F1FC80210C48FFF7EDFC10211F
:100B98000A48FFF7E9FC20210848FFF7E5FC4FF475
:100BA80080710648FFF7E0FC08210448FFF7CEFCF7
:100BB80000BF0C37BD4690BD000D00200004024068
:100BC800000C024080B582B000AF0023FB71002109
:100BD80000200AF051FD0346BB80BB8803F4805314
:100BE800002B03D0FB7943F00103FB71BB8803F0B2
:100BF8004003002B03D0FB7943F00203FB71BB8851
:100C080003F08003002B03D0FB7943F00403FB714E
:100C1800BB8803F48073002B03D0FB7943F00803EF
:100C2800FB71FB7918460837BD4680BD80B582B098
:100C380000AF0123FB714FF400711148FFF794FCDA
:100C480000BFFB795A1EFA71002BFAD14FF40071DC
:100C58000B48FFF77BFC00BF40210A48FFF732FC36
:100C68000346002BF8D040210648FFF72BFC03462B
:100C7800DAB2054B83F8232000BF0837BD4680BD94
:100C88000004024000080240000D002080B582B038
:100C980000AF002100200AF0EFFC0346FB80FB8830
:100CA8000022194600200AF091FC4FF4F043FB8023
:100CB800FB88002219460F200AF088FC084B93F89D
:100CC8002530002B01D00AF083FE054B93F828301D
:100CD800002B01D001F0CCFD00BF0837BD4680BD18
:100CE800000D002080B5ACB000AF3B600346FB713F
:100CF8000B46BB7113467B7107F070FCF866B44B6A
:100D08001B68FA6ED31A182B40F24584B04AFB6E62
:100D18001360FB79002B40F00681BB79202B00F291
:100D28003C847B79202B01D920237B717B7987F840
:100D38006130BB79013BA74A134497F8612083F8D7
:100D48003020002387F8AF3016E097F8AF305B000B
:100D58003A68D118BB795A1E97F8AF3008889D4970
:100D68005201134438335B000B440246DA8097F88B
:100D7800AF30013387F8AF30BB79013B954A134454
:100D880093F8303097F8AF209A42DED37B79202B46
:100D980001D100237B71BB793F339BB25B01A7F87C
:100DA8005E30B7F8B830A7F84C3097F8BC30DB02A3
:100DB8001AB297F8C0305B011BB213431AB27B79A1
:100DC8001BB213431BB29BB2A7F84E30B7F85E3084
:100DD800A7F850304FF40073A7F852304AF6CD33D5
:100DE800A7F854304AF6CD33A7F856304AF6CD3333
:100DF800A7F858304AF6CD33A7F85A300023C7F879
:100E0800A83018E0BB795A1ED7F8A8305B00B03379
:100E18003B4433F8640C6F49D200D7F8A830134428
:100E280003F59B635B000B440246DA80D7F8A830D1
:100E38000133C7F8A830D7F8A830072BE2DD012026
:100E48000AF02AFDBB7903F2BF739BB2DB009BB2A9
:100E5800002219460B200AF0B9FB0023C7F8A4307A
:100E680014E0BB79013B5B49DA00D7F8A43013449E
:100E780003F59B635B000B44DB88002118460AF0EE
:100E88005DFCD7F8A4300133C7F8A430D7F8A430F4
:100E9800072BE6DDBB79013B4E4A1B01134403F6E1
:100EA800BA131B88002219460B200AF08FFB002377
:100EB800C7F8A03013E0BB79013B46495A01D7F87F
:100EC800A030134438335B000B44DB8800211846FC
:100ED8000AF034FCD7F8A0300133C7F8A030BB794A
:100EE800013B3C4A134493F830301A46D7F8A030F7
:100EF8009342E0DBBB7903F2BF739BB2364A1278A8
:100F0800DB0099B2354B23F82210334B1B78334A58
:100F18009B001344FA799A702F4B1B780133DAB28D
:100F28002D4B1A702FE3FB79012B40F0BA80BB7967
:100F3800202B00F234837B79202B01D920237B716D
:100F48007B7987F86530BB79013B224A134497F8CF
:100F5800652083F850207B79202B01D100237B71F9
:100F6800BB795F339BB25B01A7F86230B7F8B83042
:100F7800BB8797F8BC30DB021BB243F480631AB21C
:100F880097F8C0305B011BB213431AB27B791BB2CE
:100F980013431BB29BB2FB87B7F86230A7F8403007
:100FA8004FF40073A7F842304AF6CD33A7F844301F
:100FB8004AF6CD33A7F846304AF6CD33A7F848307D
:100FC8004AF6CD33A7F84A300023C7F89C3020E012
:100FD800380C0020000D0020340C0020081D0020D3
:100FE800BB795A1ED7F89C305B00B0333B4433F8CA
:100FF800740CAD49D200D7F89C30134403F5BB6399
:101008005B000B440246DA80D7F89C300133C7F8FE
:101018009C30D7F89C30072BE2DD01200AF03CFC1D
:10102800BB7903F2DF739BB2DB009BB20022194647
:101038000B200AF0CBFA0023C7F8983014E0BB79EC
:10104800013B9949DA00D7F89830134403F5BB639C
:101058005B000B44DB88002118460AF06FFBD7F8C9
:1010680098300133C7F89830D7F89830072BE6DD69
:10107800BB7903F2DF739BB28C4A1278DB0099B21A
:101088008B4B23F82210894B1B78894A9B00134409
:10109800FA799A70854B1B780133DAB2834B1A7050
:1010A80071E2FB79022B40F00581BB79042B00F239
:1010B80078827B79202B01D920237B717B7987F873
:1010C8006930BB79013B784A134497F8692083F863
:1010D8007020002387F8973017E097F897305B0067
:1010E8003A68D118BB795A1E97F8973008886E4924
:1010F8005201134403F587635B000B440246DA8010
:1011080097F89730013387F89730BB79013B664AE7
:10111800134493F8703097F897209A42DDD37B797F
:10112800202B01D100237B71BB797F339BB25B01FC
:10113800A7F86630B7F8B830BB8597F8C0305B01C0
:101148001BB26FEA43536FEA53531AB27B791BB24F
:1011580013431BB29BB2FB85B7F866303B8600236E
:101168007B864AF6CD33BB864AF6CD33FB864AF6F4
:10117800CD333B874AF6CD337B870023C7F89030C1
:1011880018E0BB795A1ED7F890305B00B0333B4467
:1011980033F8840C4449D200D7F89030134403F54F
:1011A800DB635B000B440246DA80D7F890300133EA
:1011B800C7F89030D7F89030072BE2DD01200AF00D
:1011C8006BFBBB7903F2FF739BB2DB009BB200227F
:1011D80019460B200AF0FAF90023C7F88C3014E0FE
:1011E800BB79013B3049DA00D7F88C30134403F55A
:1011F800DB635B000B44DB88002118460AF09EFA8B
:10120800D7F88C300133C7F88C30D7F88C30072BDF
:10121800E6DDBB79013B244A1B01134403F6BA53AC
:101228001B88002219460B200AF0D0F90023C7F8C2
:10123800883014E0BB79013B1B495A01D7F8883044
:10124800134403F587635B000B44DB8800211846D1
:101258000AF074FAD7F888300133C7F88830BB79B8
:10126800013B114A134493F870301A46D7F8883076
:101278009342DFDBBB7903F2FF739BB20B4A127810
:10128800DB0099B20A4B23F82210084B1B78084A56
:101298009B001344FA799A70044B1B780133DAB235
:1012A800024B1A706FE100BF000D0020340C0020C3
:1012B800081D0020FB79032B40F09480BB79012B9B
:1012C80000F27181BB799BB25B019BB203F5DA53E3
:1012D8000233A7F86A30B7F8B830BB8397F8BC3048
:1012E800DB021BB243F4FC631AB297F8C4301BB29A
:1012F80013431BB29BB2FB83B7F86A303B840023CD
:101308007B844AF6CD33BB844AF6CD33FB844AF658
:10131800CD333B854AF6CD337B850023C7F884302F
:1013280018E0BB795A1ED7F884305B00B0333B44D1
:1013380033F8940C9F49D200D7F88430134403F54E
:10134800DF635B000B440246DA80D7F88430013350
:10135800C7F88430D7F88430072BE2DD01200AF083
:101368009BFABB7903F603039BB2DB009BB2002216
:1013780019460B200AF02AF90023C7F8803014E038
:10138800BB79013B8B49DA00D7F88030134403F569
:10139800DF635B000B44DB88002118460AF0CEF9B6
:1013A800D7F880300133C7F88030D7F88030072B62
:1013B800E6DDBB7903F603039BB27F4A1278DB00B4
:1013C80099B27E4B23F822107B4B1B787B4A9B00FB
:1013D8001344FA799A70784B1B780133DAB2764B5A
:1013E8001A70D0E0FB79042B40F0CD80BB79012B3B
:1013F80000F2DB807B79202B01D920237B7100232D
:1014080087F87F3017E097F87F305B003A68D1188B
:10141800BB795A1E97F87F300888664952011344F1
:1014280003F597635B000B440246DA8097F87F3038
:10143800013387F87F3097F87F207B799A42E2D38F
:10144800BB79013B5B4A13447A7983F87420B7F877
:10145800B830BB8197F8C4301BB243F46F5343F0E4
:1014680020031BB29BB2FB8141F655333B8200231C
:101478007B824AF6CD33BB824AF6CD33FB824AF6ED
:10148800CD333B834AF6CD337B830023BB6714E01F
:10149800BB795A1EBB6F5B00B0333B4433F8A40CD6
:1014A8004449D200BB6F134403F5E0635B000B446F
:1014B8000246DA80BB6F0133BB67BB6F072BE7DDE2
:1014C80001200AF0E9F9BB7903F604039BB2DB00BB
:1014D8009BB2002219460B200AF078F800237B679C
:1014E80011E0BB79013B3349DA007B6F134403F504
:1014F800E0635B000B44DB88002118460AF01EF904
:101508007B6F01337B677B6F072BEADD002241F697
:1015180050310B200AF05AF800233B6711E0BB79E1
:10152800013B24495A013B6F134403F597635B0061
:101538000B44DB88002118460AF000F93B6F0133A1
:101548003B67BB79013B1B4A134493F874301A4636
:101558003B6F9342E3DBBB7903F604039BB2164A65
:101568001278DB0099B2154B23F82210124B1B7826
:10157800124A9B001344FA799A700F4B1B78013377
:10158800DAB20D4B1A700C4B1B78462B0ED90A4B4E
:1015980000221A700AE000BF08E000BF06E000BFA2
:1015A80004E000BF02E000BF00E000BFB037BD4666
:1015B80080BD00BF000D0020340C0020081D002055
:1015C80080B592B000AF3B600346FB710B46BB7120
:1015D80013467B71FB79002B40F0BD80BB79202B33
:1015E80000F2F8827B79202B01D920237B717B794B
:1015F800FB76BB79013B9E4A1344FA7E83F8302080
:10160800002387F8473016E097F847305B003A68C0
:10161800D118BB795A1E97F8473008889449520167
:10162800134438335B000B440246DA8097F847309E
:10163800013387F84730BB79013B8D4A134493F84F
:10164800303097F847209A42DED37B79202B01D19E
:1016580000237B71BB793F339BB25B013B83BB7932
:10166800013B834A9B331B0113440633B7F85020D0
:101678001A8097F85430DB021AB297F858305B0199
:101688001BB213431AB27B791BB213431AB2BB794C
:10169800013B91B2764A1B01134403F6B8130A467C
:1016A8001A80BB79013B724A1B01134403F6BA1333
:1016B8003A8B1A8001200AF0EFF8BB7903F2BF7366
:1016C8009BB2DB009BB2002219460B2009F07EFF7B
:1016D80000233B6411E0BB79013B6549DA003B6CB0
:1016E800134403F59B635B000B44DB880021184619
:1016F8000AF024F83B6C01333B643B6C072BEADDB2
:10170800BB79013B5A4A1B01134403F6BA131B88E1
:10171800002219460B2009F059FF0023FB6310E053
:10172800BB79013B52495A01FB6B134438335B00C8
:101738000B44DB88002118460AF000F8FB6B0133E4
:10174800FB63BB79013B4A4A134493F830301A468D
:10175800FB6B9342E4DBFB79012B6FD1BB79202B28
:1017680000F23A827B79202B01D920237B717B7987
:10177800FB75BB79013B3E4A1344FA7D83F8502040
:101788007B79202B01D100237B71BB795F339BB21E
:101798005B01BB82BB79013B354ABB331B01134458
:1017A8000633B7F850201A8097F85430DB021BB282
:1017B80043F480631AB297F858305B011BB21343A5
:1017C8001AB27B791BB213431AB2BB79013B91B2AF
:1017D800274A1B01134403F6B8330A461A80BB791B
:1017E800013B234A1B01134403F6BA33BA8A1A8011
:1017F80001200AF051F8BB7903F2DF739BB2DB00DA
:101808009BB2002219460B2009F0E0FE0023BB63BF
:1018180011E0BB79013B1649DA00BB6B134403F5B1
:10182800BB635B000B44DB880021184609F086FF88
:10183800BB6B0133BB63BB6B072BEADDFB79022B68
:1018480040F0AE80BB79042B00F2C8817B79202B55
:1018580001D920237B717B79FB74BB79013B044A56
:101868001344FA7C83F87020002387F8373019E096
:10187800000D002097F837305B003A68D118BB7923
:101888005A1E97F837300888B7495201134403F5B0
:1018980087635B000B440246DA8097F837300133E0
:1018A80087F83730BB79013BAF4A134493F870305F
:1018B80097F837209A42DDD37B79202B01D100237A
:1018C8007B71BB797F339BB25B013B82BB79013B68
:1018D800A54ADB331B0113440633B7F850201A809E
:1018E80097F85430DB021AB297F858305B011BB2F4
:1018F80013431AB27B791BB213431AB2BB79013B6B
:1019080091B2994A1B01134403F6B8530A461A8048
:10191800BB79013B944A1B01134403F6BA533A8A34
:101928001A80012009F0B8FFBB7903F2FF739BB25C
:10193800DB009BB2002219460B2009F047FE00236A
:101948003B6311E0BB79013B8749DA003B6B1344E9
:1019580003F5DB635B000B44DB880021184609F0C4
:10196800EDFE3B6B01333B633B6B072BEADD3B8AA8
:10197800002219460B2009F029FE0023FB620BE028
:10198800FB6A5B003A6813441B880021184609F07B
:10199800D5FEFB6A0133FB627B79FA6A9A42EFDB78
:1019A800FB79032B60D1BB79012B00F21981BB793C
:1019B8009BB25B019BB203F5DA530233FB81BB791F
:1019C800013B694ADF331B0113440633B7F8502043
:1019D8001A8097F85430DB021BB243F480631AB2C2
:1019E80097F858305B011BB213431AB297F85C3072
:1019F8001BB213431AB2BB79013B91B25A4A1B017D
:101A0800134403F6F8530A461A80BB79013B564A39
:101A18001B01134403F6FA53FA891A80012009F0CE
:101A28003BFFBB7903F603039BB2DB009BB20022AA
:101A380019460B2009F0CAFD0023BB6211E0BB79EF
:101A4800013B4949DA00BB6A134403F5DF635B00D5
:101A58000B44DB880021184609F070FEBB6A01338D
:101A6800BB62BB6A072BEADDFB79042B40F0BB8025
:101A7800BB79012B00F2B6807B79202B01D920237A
:101A88007B71BB79013B384A13447A7983F8742017
:101A9800002387F8273017E097F827305B003A686B
:101AA800D118BB795A1E97F8273008882E49520159
:101AB800134403F597635B000B440246DA8097F8FA
:101AC8002730013387F82730BB79013B264A134476
:101AD80093F8743097F827209A42DDD3BB799BB2EC
:101AE8005B019BB203F5D9531533BB81BB79013B2D
:101AF8001D4AE0331B0113440633B7F850201A80FF
:101B080097F85430DB021AB297F858305B011BB2D1
:101B180013431AB297F85C301BB213431AB2BB795D
:101B2800013B91B2104A1B01134403F608630A46AD
:101B38001A80BB79013B0C4A1B01134403F60A6364
:101B4800BA891A80012009F0A7FEBB7903F60403BD
:101B58009BB2DB009BB2002219460B2009F036FD30
:101B680000233B6214E000BF000D0020BB79013B5D
:101B78001E49DA003B6A134403F5E0635B000B443B
:101B8800DB880021184609F0D9FD3B6A01333B6226
:101B98003B6A072BEADD002241F650310B2009F0A1
:101BA80015FD0023FB6111E0BB79013B0F495A0188
:101BB800FB69134403F597635B000B44DB88002142
:101BC800184609F0BBFDFB690133FB61FB691F2B5C
:101BD800EADD08E000BF06E000BF04E000BF02E065
:101BE80000BF00E000BF4837BD4680BD000D0020A3
:101BF8002DE9F04794B000AFBA607B600346FB73F1
:101C08000B46BB736B469A46BB68632B02D86423AA
:101C1800BB6005E0BB68AA4A934201D9A84BBB60E8
:101C2800BB68A84AA2FB03235B09FB63FB6B7B87AA
:101C38007B68632B02D864237B6005E07B68A04A3D
:101C4800934201D99E4B7B607B689E4AA2FB03238B
:101C58005B097B637B6B7B86C023FB7600237B64FD
:101C6800FB7B002B0BD1984B1B78DB00BA7B002A3F
:101C780001D0082200E0002213447B640AE0924B62
:101C88001B789B00BA7B002A01D0082200E00022C2
:101C980013447B647E6C3346013BFB620023B046F1
:101CA80099464FF000024FF000034FEA091343EA48
:101CB80018734FEA0812002334461D464FF00002FD
:101CC8004FF000032B0143EA14732201730007331A
:101CD800DB08DB00ADEB030D6B4601335B085B00F3
:101CE800BB62FB7B002B03D0012B00F0E18093E16A
:101CF800BB7B002B00F09080002387F8433040E046
:101D080097F843309BB2DB003B843A8CBB6A43F6BE
:101D18000F0123F812103B8C5A1CBB6A798F23F8E9
:101D280012103B8C9A1CBB6A43F60F4123F8121021
:101D38003B8CDA1CBB6A002123F812103B8C1A1D5D
:101D4800BB6A40F20F4123F8121097F843303A8CDF
:101D580005325E4931F82310BB6A23F812103B8C18
:101D68009A1DBB6A42F20F4123F812103B8CDA1D10
:101D7800BB6A002123F8121097F84330013387F823
:101D88004330514B1B7897F843209A42B8D34E4BB7
:101D98001B78DA00BB6A43F60F0123F812104A4B8E
:101DA8001B78DB005A1CBB6A798E23F81210464B4D
:101DB8001B78DB009A1CBB6A43F60F4123F812100C
:101DC800414B1B78DB00DA1CBB6A002123F8121098
:101DD8003D4B1B78DB001A1DBB6A42F20F4123F80A
:101DE8001210394B1B78DB005A1DBB6A002123F8FF
:101DF8001210354B1B78DB009A1DBB6A40F60F01A9
:101E080023F81210304B1B78DB00DA1DBB6A41F651
:101E1800703123F81210FFE0002387F8423040E0C9
:101E280097F842309BB2DB007B847A8CBB6A43F61E
:101E38000F0123F812107B8C5A1CBB6A798F23F888
:101E480012107B8C9A1CBB6A43F60F4123F81210C0
:101E58007B8CDA1CBB6A002123F812107B8C1A1DBC
:101E6800BB6A40F20F4123F8121097F842307A8C7F
:101E78000532164931F82310BB6A23F812107B8CFF
:101E88009A1DBB6A42F20F4123F812107B8CDA1DAF
:101E9800BB6A002123F8121097F84230013387F803
:101EA8004230094B1B7897F842209A42B8D3B3E0E6
:101EB800BB7B002B7ED0002387F841302FE000BF8A
:101EC8009CFF63001F85EB51340C0020081D002087
:101ED80097F841309BB29B00BB84BA8CBB6A45F231
:101EE8000F0123F81210BB8C5A1CBB6A002123F87F
:101EF8001210BB8C9A1CBB6A40F20F4123F81210D7
:101F080097F84130BA8C03329A4931F82310BB6AEA
:101F180023F8121097F84130013387F84130964B77
:101F28001B7897F841209A42D2D3934B1B789A009A
:101F3800BB6A43F60F0123F812108F4B1B789B00E6
:101F48005A1CBB6A798E23F812108B4B1B789B00A6
:101F58009A1CBB6A43F60F4123F81210864B1B7874
:101F68009B00DA1CBB6A002123F81210824B1B78F5
:101F780001339A00BB6A42F20F4123F812107E4BDC
:101F88001B789B005A1DBB6A002123F812107A4B5C
:101F98001B789B009A1DBB6A40F60F0123F81210AC
:101FA800754B1B789B00DA1DBB6A41F6703123F82C
:101FB800121030E0002387F8403026E097F84030D0
:101FC8009BB29B00FB84FA8CBB6A45F20F0123F895
:101FD8001210FB8C5A1CBB6A002123F81210FB8CD0
:101FE8009A1CBB6A40F20F4123F8121097F8403050
:101FF800FA8C03325F4931F82310BB6A23F81210B8
:1020080097F84030013387F840305B4B1B7897F8DE
:1020180040209A42D2D300BF002241F670313320CB
:1020280009F0D4FA012009F037FC002241F670319A
:102038000B2009F0CBFA73005B08FB8310214F4893
:10204800FEF792FA07F11C0107F11B03012218465B
:1020580005F0A8FE0023A7F84A3075E0B7F84A2033
:10206800BB6A33F81230A7F84C30B7F84C301B0A6B
:102078009AB2B7F84C305340A7F84C30B7F84C3008
:102088001B099AB2B7F84C305340A7F84C30B7F850
:102098004C3003F00F03A7F84C30B7F84C3046F635
:1020A800961242FA03F303F00103002B0AD1B7F8A2
:1020B8004A20BB6A33F81230A3F5FD43403BA7F82A
:1020C8004C3008E0B7F84A20BB6A33F8123003F501
:1020D800A073A7F84C30B7F84C301B0A9BB2DBB2A0
:1020E8003B75B7F84C30DBB27B75B7F84A305A1CF1
:1020F800BB6A33F812301B0A9BB2DBB2BB75B7F868
:102108004A305A1CBB6A33F81230DBB2FB75002325
:10211800A7F84E300FE0B7F84E3007F11402134419
:1021280007F11C010122184605F03CFEB7F84E30B5
:102138000133A7F84E30B7F84E30032BEBD9B7F878
:102148004A300233A7F84A30B7F84A20FB8B9A4244
:1021580084D300BF0A48FEF716FA0346002BF9D1CC
:1021680010210648FEF7F2F9D54600BF5037BD46A4
:10217800BDE8F087081D0020340C00200000024054
:102188000030014080B584B000AF03460A46FB71B9
:102198001346BB710023FB81BB799AB2FB891343B9
:1021A800FB81FB79002B08D0FB8943F00803FB81F6
:1021B8000C4B0822A3F8C62E03E00A4B0022A3F812
:1021C800C62E084AFB89A2F8BE3E064BB3F8BE3EAF
:1021D80000221946392009F0F9F900BF1037BD4629
:1021E80080BD00BF000D002080B582B000AF002187
:1021F800012009F041FA0346FB80FB8803F40073D1
:10220800FB80FB88B3F5007F07D1094B012283F8D7
:102218002420074B93F8243006E0054B002283F86E
:102228002420034B93F8243018460837BD4680BD58
:10223800000D002080B586B000AF012009F02CFB0E
:1022480000224F210B2009F0C1F9002009F0C6FA3D
:1022580003463B823B8A002219460B2009F0B6F957
:10226800002009F0BBFA03463B80002009F0B6FACB
:1022780003467B8002237B610DE0002009F0AEFA63
:1022880003461A467B695B0018333B4423F8182C35
:102298007B6901337B617B69072BEEDD0023FB74CF
:1022A80010E0FB7CFA7C5B0018333B4433F8180CD5
:1022B800084902F5E1635B000B440246DA80FB7CC7
:1022C8000133FB74FB7C072BEBD9034B18461837FB
:1022D800BD4680BD000D0020161B002090B58FB0B4
:1022E80000AF0823FB8600237B8500233B85002362
:1022F800FB84012009F0D0FA00224F210B2009F0BD
:1023080065F9002009F06AFA0346BB84BB8C0022F9
:1023180019460B2009F05AF9002009F05FFA034624
:102328003B80002009F05AFA03467B807B887B8437
:102338007B8CDB0A9BB2DBB203F01F0387F82130EA
:102348007B8C9B0A9BB2DBB203F0010387F8203039
:102358007B8C5B099BB2DBB203F01F03FB7797F81A
:1023680021309AB25F4BA3F8B22E97F820309AB278
:102378005C4BA3F8B42EFB7F9AB25A4BA3F8B62E47
:102388007B8CDB0A9AB2574BA3F8262E7B8C9B0AD0
:102398009BB203F001039AB2524BA3F8282E7B8C10
:1023A8005B099BB203F01F039AB24E4BA3F82A2E87
:1023B8007B8803F47843B3F5784F01D101237B85FB
:1023C8003B8803F00103002B03D001233B850A233C
:1023D800FB8602233B630DE0002009F0FFF903466A
:1023E8001A463B6B5B0038333B4423F8382C3B6B75
:1023F80001333B63FB8E3A6B9A42EDDB3B89BB832F
:10240800384ABB8BA2F8B83E364ABB8BA2F82C3EA2
:10241800FB897B83334A7B8BA2F8BA3E314A7B8B9C
:10242800A2F82E3E7B8803F478733B833B8B002B0A
:1024380003D03B8BB3F5787F1ED10123FB847B88C7
:1024480003F01F03FB82FB8A0F2B12D90123FB86A3
:10245800BB88BB84BB8C012219460B2009F0B6F857
:10246800012009F0BBF903461A461E4BA3F8322E89
:102478000BE00023FB8608E07B8803F01F03FB8644
:10248800FB8E002B01D12023FB86164AFB8EA2F877
:10249800BC3E144AFB8EA2F8303EBB88BB82BB8A86
:1024A800002219460B2009F091F80023FB6210E086
:1024B800FB6A9C1D002009F091F903461946094A58
:1024C80004F5E2635B0013440A46DA80FB6A0133D1
:1024D800FB62FB8EFA6A9A42EADB034B18463C37EA
:1024E800BD4690BD000D0020261B002080B588B099
:1024F80000AF03460A46FB711346BB7100237B817C
:10250800012009F0C9F9FB79042B00F2BD8001A272
:1025180052F823F03125000875250008B925000870
:10252800FD25000847260008BB793F339BB25B01B5
:102538007B817B89002219460B2009F047F800238C
:10254800FB610FE0002009F049F903461946514A9A
:10255800FB6903F5E7635B0013440A465A80FB698D
:102568000133FB61FB691F2BECDD8EE0BB795F3328
:102578009BB25B017B817B89002219460B2009F005
:1025880025F80023BB610FE0002009F027F9034676
:102598001946404ABB6903F5E7635B0013440A46E2
:1025A8005A80BB690133BB61BB691F2BECDD6CE052
:1025B800BB797F339BB25B017B817B890022194603
:1025C8000B2009F003F800237B610FE0002009F0DD
:1025D80005F9034619462F4A7B6903F5E7635B0053
:1025E80013440A465A807B6901337B617B691F2B40
:1025F800ECDD4AE0BB799BB25B019BB203F5DA5391
:1026080002337B817B89002219460B2008F0DEFF0C
:1026180000233B610FE0002009F0E0F8034619466B
:102628001C4A3B6903F5E7635B0013440A465A807A
:102638003B6901333B613B691F2BECDD25E0BB792E
:102648009BB25B019BB203F5D95315337B817B8920
:10265800002219460B2008F0B9FF0023FB600FE0A9
:10266800002009F0BBF8034619460A4AFB6803F53F
:10267800E7635B0013440A465A80FB680133FB603A
:10268800FB681F2BECDD00E000BF034B184620372A
:10269800BD4680BD000D0020721B002080B582B0B1
:1026A80000AF02210D48FDF73CFF0346002B11D077
:1026B8000B4B012283F829200021002008F0DCFFC1
:1026C800034643F48053FB80FB8800221946002010
:1026D80008F07CFF00BF0837BD4680BD00040240FB
:1026E800000D002080B582B000AF02211048FDF730
:1026F80018FF0346002B16D00E4B002283F8292022
:102708000C4B0022DA770021002008F0B5FF0346C1
:1027180023F4FF5323F01F03FB80FB880022194694
:10272800002008F053FF00BF0837BD4680BD00BF3A
:1027380000040240000D002080B582B000AF0221E5
:102748000F48FDF7EEFE0346002B14D00D4B012277
:1027580083F82D200B4B0122DA770021002008F0A6
:102768008BFF034643F44053FB80FB880022194645
:10277800002008F02BFF00BF0837BD4680BD00BF12
:1027880000040240000D002080B582B000AF05F0C3
:1027980025FF38600F4B1B683A68D31A4A2B15D9A6
:1027A8000C4A3B6813600223FB714FF480710A489E
:1027B800FDF7CCFE00BFFB795A1EFA71002BFAD147
:1027C8004FF480710448FDF7CFFE00E000BF0837E2
:1027D800BD4680BD3C0C0020000C024080B584B092
:1027E80000AF03460A46FB711346BB710023BB8149
:1027F8000023FB81BB799AB2BB891343BB811B4A77
:10280800BB89A2F8C03EFB79002B06D00223FB81CE
:10281800164B0222A3F8C82E05E00023FB81134BB8
:102828000022A3F8C82E012009F036F80022292139
:102838000B2008F0CBFE002008F0D0FF03461A4614
:10284800FB891343FB81FB8900221946292008F0E4
:10285800BDFE064BB3F8C03E00221946392008F0E9
:10286800B5FE00BF1037BD4680BD00BF000D00207B
:1028780090B5ADF5077D00AF07F50673A3F58A732C
:10288800534A1C4613460FCB84E80F0007F506731E
:10289800A3F5827318464FF480731A46002109F095
:1028A800EBF807F50673A3F5827301229A8407F5FE
:1028B8000673A3F582734FF480721A8707F50673BF
:1028C800A3F5057207F50673A3F58273104619463A
:1028D8004FF480731A4609F0C1F8012008F0DCFFB4
:1028E80000224FF480710B2008F070FE0023A7F837
:1028F800163211E0B7F8162207F50673A3F505732B
:1029080033F812309BB20021184608F017FFB7F8C9
:1029180016320133A7F81632B7F816327F2BE9D9E9
:102928000022B0212F2008F051FE0022B0210B20F8
:1029380008F04CFE0023A7F8163211E0B7F816226B
:1029480007F50673A3F58A7333F812309BB200219A
:10295800184608F0F3FEB7F816320133A7F8163216
:10296800B7F81632072BE9D900224FF4FC71112071
:1029780008F02CFE00224FF4FC71152008F026FE0A
:102988000021002008F078FE0346A7F81432B7F8B3
:10299800143243F002039BB200221946002008F0CB
:1029A80015FE0023A7F81632B7F8163243F4804311
:1029B80043F07503A7F81632B7F816320022194605
:1029C800292008F003FE00BF07F50777BD4690BD34
:1029D800A8BA000880B582B000AF012008F05CFFFB
:1029E800002229210B2008F0F1FD002008F0F6FE56
:1029F8000346BB80002231210B2008F0E7FD0020B0
:102A080008F0ECFE03467B80BB8803F00203002B32
:102A18000DD17B8804339BB2002219460B2008F0A5
:102A2800D5FD002008F0DAFE0346FB800CE07B8829
:102A380007339BB2002219460B2008F0C7FD00207F
:102A480008F0CCFE0346FB80054AFB88A2F8163F37
:102A5800034BB3F8163F18460837BD4680BD00BF84
:102A6800000D002090B59BB000AF0023A7F85A30A6
:102A78000023A7F862300023A7F858300023A7F8EE
:102A880056300023A7F85430032387F86130002319
:102A980087F85330002387F86030002387F85F30C9
:102AA800012008F0F9FE002229210B2008F08EFDF4
:102AB800002008F093FE0346A7F85030B7F85030CE
:102AC80003F00103002B02D0012387F853300022C2
:102AD80031210B2008F07AFD002008F07FFE034624
:102AE800A7F84E3000222F210B2008F06FFD0020A0
:102AF80008F074FE0346A7F84C30B7F8503003F0DE
:102B08000203002B18D1002387F86130032387F8CC
:102B18005F30012387F86030B7F84E3002339BB23C
:102B2800002219460B2008F051FD002008F056FE3F
:102B38000346A7F8663014E0032387F861300723BB
:102B480087F85F30B7F84E3006339BB2002219463B
:102B58000B2008F03BFD002008F040FE0346A7F8D4
:102B68006630B7F84C30002219460B2008F02EFDCD
:102B7800002008F033FE03461A46B7F84E30934259
:102B880019D1B7F84C3004339BB2002219460B20F8
:102B980008F01CFD002008F021FE0346A7F84A3083
:102BA800002008F01BFE03461A46B7F84A30D31A2D
:102BB800A7F864304AE0B7F84C3001339BB20022E2
:102BC80019460B2008F002FD002008F007FE034616
:102BD800A7F84A30B7F84A30013B9BB200221946A1
:102BE8000B2008F0F3FC002008F0F8FD0346A7F8D6
:102BF8004830B7F848305B099BB2B3F5FC6F03D196
:102C08000023A7F8643021E0B7F848305B099BB28D
:102C180040F2FF72934203D10023A7F8643015E015
:102C2800B7F84C3005339BB2002219460B2008F048
:102C3800CDFC002008F0D2FD0346A7F84A30B7F8CB
:102C48004A20B7F86630D31AA7F8643097F861308D
:102C58009AB2B7F84E3013449BB2002219460B20A3
:102C680008F0B4FC002008F0B9FD0346A7F85A3074
:102C780097F85F309AB2B7F84E3013449BB20022EF
:102C880019460B2008F0A2FC002008F0A7FD034617
:102C9800A7F8543097F86030002B0FD0B7F84E30B3
:102CA80001339BB2002219460B2008F08FFC00204C
:102CB80008F094FD0346A7F862302AE0B7F84E30D2
:102CC800002219460B2008F081FC002008F086FD40
:102CD8000346A7F86230B7F84E3001339BB20022A2
:102CE80019460B2008F072FC002008F077FD034617
:102CF800A7F85830B7F84E3002339BB20022194675
:102D08000B2008F063FC002008F068FD0346A7F8D4
:102D18005630564AB7F85430A2F8163F534AB7F817
:102D28005A30A2F81A3FB7F86430023B9AB24F4BB8
:102D3800A3F81C2F4D4AB7F85430A2F8CE3EB7F886
:102D48006430023B9AB2494BA3F8D02E474AB7F8F1
:102D58006230A2F8D23E454AB7F85A30A2F8D43EBB
:102D6800B7F86430222B05D8B7F86430DBB2023BE1
:102D7800DBB200E0202387F84730B7F8663000223E
:102D880019460B2008F022FCB7F854309B0A9BB276
:102D980003F00103A7F84430B7F84430002B34D0CF
:102DA800002008F01BFD03461A46304BA3F8D42E2A
:102DB800002387F85E3021E097F85E40002008F095
:102DC8000DFD03461A46630068333B4423F8642C20
:102DD80097F85E3097F85E2004325B0068333B4416
:102DE80033F8640C214902F264735B000B44024619
:102DF800DA8097F85E30013387F85E3097F85E2006
:102E080097F847309A42D7D32BE0002387F85D30F4
:102E180021E097F85D40002008F0E0FC03461A46E0
:102E2800630068333B4423F8642C97F85D3097F8C7
:102E38005D2004325B0068333B4433F8640C0B4973
:102E480002F264735B000B440246DA8097F85D3047
:102E5800013387F85D3097F85D2097F847309A423C
:102E6800D7D3034B18466C37BD4690BD000D0020E4
:102E7800CE1B002080B582B000AF04210F48FDF7BB
:102E880050FB0346002B15D00D4B012283F82C2054
:102E98000B4B012283F822200021002008F0ECFBD4
:102EA800034643F48073FB80FB8800221946002008
:102EB80008F08CFB00BF0837BD4680BD0004024007
:102EC800000D002080B582B000AF04211048FDF746
:102ED80028FB0346002B17D00E4B002283F82C202A
:102EE8000C4B002283F822200021002008F0C4FBAC
:102EF800034623F4FF7323F00103FB80FB880022C1
:102F08001946002008F062FB00BF0837BD4680BDA7
:102F180000040240000D002080B584B000AF0346D5
:102F2800FB710B46BB7113467B716F23FB81FB79E9
:102F3800002B03D1FB8943F40063FB81BB79002B91
:102F480003D1FB8943F40073FB817B79002B03D009
:102F5800FB8943F08003FB81FB8900221946172077
:102F680008F034FB0021002008F086FB034623F01C
:102F78001003BB81BB8943F040039BB20022194672
:102F8800002008F023FB00210F2008F075FB034602
:102F980023F08003BB81BB8943F008039BB2002266
:102FA80019460F2008F012FB0021132008F064FBDB
:102FB800034623F08003BB81BB8943F008039BB21F
:102FC80000221946132008F001FB1221012008F005
:102FD800A8FA034623F4FF7323F00103BB81BB89DE
:102FE80043F4D4739BB200221946122008F0EEFA7B
:102FF80000224FF4D471122008F0E8FA012008F0FA
:103008004BFC002216210B2008F0E0FA002008F003
:10301800E5FB034623F4FF7323F00103BB81BB895F
:1030280043F4D4739BB200221946162008F0CEFA56
:10303800BB8943F4D473BB81BB890022194616208F
:1030480008F0C4FA002200211A2008F0BFFA002272
:1030580000214A2008F0BAFA00224AF6AA211C20C8
:1030680008F0B4FA00224BF6BB311D2008F0AEFA86
:10307800002200211E2008F0A9FA00224AF6CD31CC
:103088001F2008F0A3FA012008F006FC00221921ED
:103098000B2008F09BFA002008F0A0FB03467B8178
:1030A8007B89002219460B2008F090FA7B79002BC7
:1030B80028D00023FB810023BB8120E0BB89042B9F
:1030C80001D10023BB81BB89002B08D17A89FB89F8
:1030D80013449BB2002219460B2008F077FAFB89AB
:1030E8000A4A32F813303B813B890021184608F020
:1030F80025FBFB890133FB81BB890133BB81FB893C
:10310800FF2BDBD900BF1037BD4680BD0000002073
:1031180080B584B000AF0346FB7100237B81FB7947
:10312800002B47D0012008F0B7FB002219210B2003
:1031380008F04CFA002008F051FB03467B817B899C
:10314800002219460B2008F041FA4FF48073FB81E6
:103158000023BB8129E0BB89042B01D10023BB815B
:10316800BB89002B17D17A89FB8913449BB20022B3
:1031780019460B2008F02AFAFB89254A32F8133041
:1031880023F47F6323F00F033B813B89002118461A
:1031980008F0D4FA03E00021002008F0CFFAFB89F8
:1031A8000133FB81BB890133BB81FB89B3F5007F08
:1031B800D1D329E00023FB810023BB8120E0BB8918
:1031C800042B01D10023BB81BB89002B08D17A894C
:1031D800FB8913449BB2002219460B2008F0F6F92C
:1031E800FB890B4A32F813303B813B890021184692
:1031F80008F0A4FAFB890133FB81BB890133BB8149
:10320800FB89B3F5007FDAD300BF1037BD4680BD18
:103218000000002080B584B000AF0346FB71FB7945
:10322800002B19D0012008F037FB00224FF4007161
:103238000B2008F0CBF90023FB600AE0084AFB6882
:1032480032F813300021184608F078FAFB68013389
:10325800FB60FB68FF2BF1DD00BF1037BD4680BD6A
:103268000004002080B586B000AF0346FB71002340
:10327800FB750023BB750DE0FA79BB7D42FA03F3B9
:1032880003F00103002B02D0FB7D0133FB75BB7DEE
:103298000133BB75BB7D072BEED9FB7D03F0010322
:1032A800DBB2002B0CBF01230023DBB27B75FB795B
:1032B8001B11DBB203F001033B75FB79DB10DBB2BA
:1032C80003F00103FB74FB799B10DBB203F00103ED
:1032D800BB74FB795B10DBB203F001037B74FB79F1
:1032E80003F001033B747B7DFB731A48FDF70DF96E
:1032F800B8603B7DDB031A46BB681343BB60FB7CAD
:103308009B031A46BB681343BB60BB7C5B031A462E
:10331800BB681343BB607B7C1B031A46BB68134323
:10332800BB603B7CDB021A46BB681343BB60FB7B7C
:103338009B021A46BB681343BB60B9680548FDF792
:10334800D6F8054AFB7982F8A23F00BF1837BD4678
:1033580080BD00BF00100240000D002080B584B081
:1033680000AF0346FB71144B93F82A30002B1FD093
:10337800114B0522A3F8CA2E0F4B93F82930002BC6
:1033880008D00D4BB3F8BE3EFB810B4AFB89A2F86F
:10339800C23E05E0FB79FB81074AFB89A2F8C23EE1
:1033A800054BB3F8C23E00221946392008F00EF941
:1033B80000BF1037BD4680BD000D002080B584B029
:1033C80000AF78600B46FB70FB789AB2304BA3F8DD
:1033D8001E2F0023FB730FE0FB7B5B007A681A4407
:1033E800FB7B11882A4A03F5F2635B0013440A4603
:1033F8005A80FB7B0133FB73FB7B9AB2244BB3F8F7
:103408001E3F9A42E8D3012008F046FA002240F60F
:1034180068010B2008F0DAF80023BB730DE0BB7BD2
:103428001B4A03F5F2635B0013445B8800211846CE
:1034380008F084F9BB7B0133BB73BB7B9AB2144B96
:10344800B3F81E3F9A42EAD3002240F68A010B20C5
:1034580008F0BCF800237B730DE07B7B0C4A03F576
:10346800F2635B0013445B880021184608F066F994
:103478007B7B01337B737B7B9AB2054BB3F81E3F92
:103488009A42EAD300BF00BF1037BD4680BD00BFD7
:10349800000D002080B582B000AF4FF400510E48F7
:1034A800FDF73FF80346002B11D00C4B012283F89F
:1034B8002A200021002008F0DFF8034643F04003EB
:1034C800FB80FB8800221946002008F07FF800BF27
:1034D8000837BD4680BD00BF00040240000D002033
:1034E80080B582B000AF4FF400511048FDF719F8CD
:1034F8000346002B15D00E4B002283F82E200C4BD0
:10350800002283F820200021002008F0B5F80346A7
:1035180023F07F03FB80FB8800221946002008F077
:1035280055F800BF0837BD4680BD00BF0004024003
:10353800000D002080B582B000AF4FF40051104854
:10354800FCF7EFFF0346002B15D00E4B012283F842
:103558002E200C4B012283F820200021002008F0A7
:103568008BF8034643F05003FB80FB880022194682
:10357800002008F02BF800BF0837BD4680BD00BF0B
:1035880000040240000D002080B584B000AF03465F
:10359800FB710B46BB7113467B714FF4A773FB811C
:1035A800FB79002B03D1FB8943F40063FB81BB79D2
:1035B800002B03D1FB8943F40073FB817B79002B3B
:1035C80003D0FB8943F08003FB81FB890022194665
:1035D800202007F0FBFF0021002008F04DF80346EB
:1035E80023F02003BB81BB8943F080039BB20022F8
:1035F8001946002007F0EAFF00210F2008F03CF8E8
:10360800034623F48073BB81BB8943F010039BB24C
:10361800002219460F2007F0D9FF0021132008F0D7
:103628002BF8034623F48073BB81BB8943F0100356
:103638009BB200221946132007F0C8FF122101206F
:1036480007F06FFF0346BB81002008F0C7F8034668
:1036580003F4FC73BB81BB8943F07F4343F47F03CE
:1036680043F454439BB200221946122007F0AEFFE0
:10367800012008F011F9002216210B2007F0A6FFFF
:10368800002008F0ABF8034603F4FC73BB81BB8948
:1036980043F07F4343F47F0343F454439BB2002237
:1036A8001946162007F092FF00220021232007F078
:1036B8008DFF002200214C2007F088FF00224AF6E7
:1036C800AA21252007F082FF00224BF6BB312620D5
:1036D80007F07CFF00220021272007F077FF002257
:1036E8004AF6CD31282007F071FF012008F0D4F800
:1036F800002222210B2007F069FF002008F06EF855
:1037080003467B817B89002219460B2007F05EFF68
:103718007B79002B28D00023FB810023BB8120E08C
:10372800BB89042B01D10023BB81BB89002B08D1A5
:103738007A89FB8913449BB2002219460B2007F0B3
:1037480045FFFB890A4A32F813303B813B89002147
:10375800184607F0F3FFFB890133FB81BB8901336E
:10376800BB81FB89FF2BDBD900BF1037BD4680BD6D
:103778000006002080B584B000AF0346FB7100232B
:103788007B81FB79002B47D0012008F085F80022C7
:1037980022210B2007F01AFF002008F01FF803462B
:1037A8007B817B89002219460B2007F00FFF4FF41D
:1037B8008073FB810023BB8129E0BB89042B01D1E5
:1037C8000023BB81BB89002B17D17A89FB8913445D
:1037D8009BB2002219460B2007F0F8FEFB89254A08
:1037E80032F8133023F47F6323F00F033B813B89C6
:1037F8000021184607F0A2FF03E00021002007F08F
:103808009DFFFB890133FB81BB890133BB81FB89A8
:10381800B3F5007FD1D329E00023FB810023BB81CE
:1038280020E0BB89042B01D10023BB81BB89002B7D
:1038380008D17A89FB8913449BB2002219460B20D0
:1038480007F0C4FEFB890B4A32F813303B813B89F1
:103858000021184607F072FFFB890133FB81BB8901
:103868000133BB81FB89B3F5007FDAD300BF103782
:10387800BD4680BD0006002080B584B000AF034679
:10388800FB71FB79002B19D0012008F005F8002204
:103898004FF440710B2007F099FE0023FB600AE00B
:1038A800084AFB6832F813300021184607F046FF33
:1038B800FB680133FB60FB68FF2BF1DD00BF1037AD
:1038C800BD4680BD000A002080B586B000AF034623
:1038D800FB710023FB750023BB750DE0FA79BB7DF6
:1038E80042FA03F303F00103002B02D0FB7D0133FE
:1038F800FB75BB7D0133BB75BB7D072BEED9FB7D0B
:1039080003F00103DBB2002B0CBF01230023DBB261
:103918007B75FB791B11DBB203F001033B75FB7967
:10392800DB10DBB203F00103FB74FB799B10DBB205
:1039380003F00103BB74FB795B10DBB203F00103F6
:103948007B74FB7903F001033B747B7DFB731A489E
:10395800FCF7DBFDB8603B7DDB031A46BB6813430D
:10396800BB60FB7C9B031A46BB681343BB60BB7CF4
:103978005B031A46BB681343BB607B7C1B031A4678
:10398800BB681343BB603B7CDB021A46BB6813432E
:10399800BB60FB7B9B021A46BB681343BB60B968DC
:1039A8000548FCF7A4FD054AFB7982F8A33F00BF50
:1039B8001837BD4680BD00BF000C0240000D002036
:1039C80080B584B000AF0346FB71144B93F82B30DD
:1039D800002B1FD0114B0522A3F8CC2E0F4B93F8C8
:1039E8002930002B08D00D4BB3F8BE3EFB810B4AA3
:1039F800FB89A2F8C43E05E0FB79FB81074AFB89F5
:103A0800A2F8C43E054BB3F8C43E0022194639203B
:103A180007F0DCFD00BF1037BD4680BD000D00205B
:103A280080B584B000AF78600B46FB70FB789AB223
:103A38002F4BA3F8202F00237B730FE07B7B5B00C9
:103A48007A681A447B7B1188294A03F5F6635B0080
:103A580013440A465A807B7B01337B737B7B9AB283
:103A6800234BB3F8203F9A42E8D3012007F014FF14
:103A7800002244F268010B2007F0A8FD0023FB8117
:103A88000DE0FB891A4A03F5F6635B0013445B8873
:103A98000021184607F052FEFB890133FB81144BC5
:103AA800B3F8203FFA899A42EBD3002244F28A0104
:103AB8000B2007F08BFD0023FB810DE0FB890C4AEE
:103AC80003F5F6635B0013445B880021184607F092
:103AD80035FEFB890133FB81054BB3F8203FFA899A
:103AE8009A42EBD300BF00BF1037BD4680BD00BF70
:103AF800000D002080B582B000AF01210D48FCF711
:103B080010FD0346002B11D00B4B012283F82B200C
:103B18000021002007F0B0FD034643F08003FB803E
:103B2800FB8800221946002007F050FD00BF083727
:103B3800BD4680BD000C0240000D002080B582B05B
:103B480000AF01210F48FCF7ECFC0346002B15D011
:103B58000D4B002283F82B200B4B002283F82120E9
:103B68000021002007F088FD034623F0FF03FB80B7
:103B7800FB8800221946002007F028FD00BF0837FF
:103B8800BD4680BD000C0240000D002080B582B00B
:103B980000AF01210F48FCF7C4FC0346002B15D0E9
:103BA8000D4B012283F82F200B4B012283F8212093
:103BB8000021002007F060FD034643F0A003FB80CE
:103BC800FB8800221946002007F000FD00BF0837D7
:103BD800BD4680BD000C0240000D002090B589B0A4
:103BE80000AF0346FB71FB79012B40F06181002394
:103BF800FB830321012007F094FC03463B613B69EA
:103C08009BB21946012007F08CFC0346FB81B7F9EB
:103C18000E20984BA3F8F62F3B6901333B613B69B3
:103C28009BB21946012007F07CFC03461AB2914B5F
:103C3800A3F8F82F3B6901333B613B699BB21946F6
:103C4800012007F06EFC03461AB28A4BA3F8FA2F3C
:103C58003B6901333B613B699BB21946012007F080
:103C680060FC03461AB2834BA3F8FC2F0221012003
:103C780007F057FC03461A467E4BA3F8AA2FFB8988
:103C880003F40063002B01D1FB8B78E2FB89FB83F3
:103C9800784BB3F8AA3F03F01F03BB61BB69002B45
:103CA80001D12023BB61BB69DAB2724B83F8B02F14
:103CB800704BB3F8AA3F184607F0E4FB0346002B05
:103CC80023D06C4BB3F8AA3F03F01F039AB2694B99
:103CD800A3F8F22F674BB3F9F83F9AB2654BA3F8F4
:103CE800AE2F644BB3F9FA3F9AB2624BA3F8AC2FEC
:103CF800604BB3F9FC3F9AB25E4BA3F8F42F5D4BCF
:103D0800002283F8B02FFB8B39E25A4B0022A3F82C
:103D1800F22FFB8903F00403002B00F08180FB895C
:103D280003F48063002B3DD0524BB3F9F83F7B611D
:103D38007B699BB21946012007F0F3FB03461A463C
:103D48004C4BA3F8AE2F7B6901337B617B699BB237
:103D58001946012007F0E5FB03461A46454BA3F830
:103D6800AC2F7B6901337B610023BB8315E07B6942
:103D78009BB2BC8B1946012007F0D3FB03461946BA
:103D88003C4A04F5FB635B0013440A465A807B698E
:103D980001337B61BB8B0133BB83BB8BBA699A420E
:103DA800E5D883E0334BB3F9FA3F7B617B699BB27B
:103DB8001946012007F0B5FB03461A462D4BA3F818
:103DC800AE2F7B6901337B617B699BB21946012069
:103DD80007F0A7FB03461A46264BA3F8AC2F7B69CE
:103DE80001337B610023BB8315E07B699BB2BC8BED
:103DF8001946012007F095FB034619461D4A04F5AC
:103E0800FB635B0013440A465A807B6901337B617C
:103E1800BB8B0133BB83BB8BBA699A42E5D845E0BB
:103E2800FB8903F00703002B40D1124BB3F9F83F8D
:103E38007B617B699BB21946012007F072FB034640
:103E48001A460C4BA3F8AE2F7B6901337B617B6963
:103E58009BB21946012007F064FB03461A46054B3E
:103E6800A3F8AC2F034BB3F9F83F02337B6100236F
:103E7800BB8317E0000D00207B699BB2BC8B194601
:103E8800012007F04EFB03461946AD4A04F5FB63D3
:103E98005B0013440A465A807B6901337B61BB8B04
:103EA8000133BB83BB8BBA699A42E5D8FB8BBB83D2
:103EB800FB79022B40F062810023FB83052101205E
:103EC80007F02FFB03463B613B699BB21946012073
:103ED80007F027FB0346FB81B7F90E20984BA3F8A0
:103EE800F62F3B6901333B613B699BB219460120C0
:103EF80007F017FB03461AB2914BA3F8F82F3B695A
:103F080001333B613B699BB21946012007F009FB6D
:103F180003461AB28A4BA3F8FA2F3B6901333B6177
:103F28003B699BB21946012007F0FBFA03461AB217
:103F3800834BA3F8FC2F0421012007F0F2FA034673
:103F48001A467F4BA3F8AA2FFB8903F40063002BC2
:103F580001D1FB8B13E1FB89FB83794BB3F8AA3FB3
:103F680003F01F03BB61BB69002B01D12023BB6198
:103F7800BB69DAB2724B83F8B02F714BB3F8AA3F22
:103F8800184607F07FFA0346002B23D06C4BB3F892
:103F9800AA3F03F01F039AB2694BA3F8F22F684BAC
:103FA800B3F9F83F9AB2664BA3F8AE2F644BB3F956
:103FB800FA3F9AB2624BA3F8AC2F614BB3F9FC3FBE
:103FC8009AB25F4BA3F8F42F5D4B002283F8B02F11
:103FD800FB8BD4E05A4B0022A3F8F22FFB8903F0A5
:103FE8000403002B00F08180FB8903F48063002B1D
:103FF8003DD0534BB3F9F83F7B617B699BB21946BF
:10400800012007F08EFA03461A464D4BA3F8AE2F4F
:104018007B6901337B617B699BB21946012007F0FC
:1040280080FA03461A46464BA3F8AC2F7B69013346
:104038007B610023BB8315E07B699BB2BC8B19466F
:10404800012007F06EFA034619463D4A04F5FB6362
:104058005B0013440A465A807B6901337B61BB8B42
:104068000133BB83BB8BBA699A42E5D884E0344BF1
:10407800B3F9FA3F7B617B699BB21946012007F0CF
:1040880050FA03461A462E4BA3F8AE2F7B6901332C
:104098007B617B699BB21946012007F042FA03460F
:1040A8001A46274BA3F8AC2F7B6901337B610023A9
:1040B800BB8315E07B699BB2BC8B1946012007F0D6
:1040C80030FA034619461E4A04F5FB635B001344A5
:1040D8000A465A807B6901337B61BB8B0133BB8302
:1040E800BB8BBA699A42E5D846E0FB8903F007031F
:1040F800002B41D1124BB3F9F83F7B617B699BB22E
:104108001946012007F00DFA03461A460C4BA3F88E
:10411800AE2F7B6901337B617B699BB21946012015
:1041280007F0FFF903461A46054BA3F8AC2F044BDA
:10413800B3F9F83F02337B610023BB8318E000BF6B
:10414800000D00207B699BB2BC8B1946012007F04B
:10415800E8F9034619460C4A04F5FB635B0013446F
:104168000A465A807B6901337B61BB8B0133BB8371
:10417800BB8BBA699A42E5D8FB8BBB83FB8B18468D
:104188002437BD4690BD00BF000D002080B582B029
:1041980000AF78600B46FB70FB781846FFF71EFDF2
:1041A800074B00221A707A68064B104603F6AA736A
:1041B8004C22194607F052FC78680837BD4680BD86
:1041C8005C300020000D002080B584B000AF0346AD
:1041D800FB71FB79002B02D0FB79022B03D9264B0C
:1041E800012283F8A82FFB79012B20D11821012067
:1041F80007F097F90346FB81FB8903F00403002BC2
:104208000CD01D4B012283F8A62F1B4B002283F8EC
:10421800A42F194B002283F8A22F28E0164B002266
:1042280083F8A62F144B012283F8A42F1FE0212125
:10423800012007F076F90346FB81FB8903F00403AC
:10424800002B0CD00C4B012283F8A72F0A4B00221D
:1042580083F8A52F084B002283F8A32F07E0064B0D
:10426800002283F8A72F044B012283F8A52F00BF53
:104278001037BD4680BD00BF000D002080B500AFDF
:1042880000220121024805F07DFA00BF80BD00BF71
:104298000000024080B500AF01220121024805F06C
:1042A80071FA00BF80BD00BF0000024080B584B035
:1042B80000AF0346FB710E4B1B68002B01D1002396
:1042C80011E00023FB720A4B186807F10B02F91D75
:1042D800012305F02FFB0346FB60FB68002B01D090
:1042E80003F0D0FDFB7A18461037BD4680BD00BFED
:1042F800440C002080B582B000AF0346FB710B462A
:10430800BB7113467B71FFF7B9FF97F9063003F0CD
:104318001F035AB297F9073013435BB2DBB2184652
:10432800FFF7C4FF7B791846FFF7C0FFFFF7B2FF1E
:1043380000BF0837BD4680BD80B584B000AF0346D6
:104348000A46FB711346BB71FFF798FF97F90630D1
:1043580003F01F035AB297F9073013435BB2DBB27D
:104368001846FFF7A3FFFF20FFF7A0FF0346FB73E4
:1043780097F90630002B04DAFF20FFF797FF034672
:10438800FB73FFF787FFFB7B18461037BD4680BDE0
:1043980080B582B000AF0346FB71FB7903F0600380
:1043A8000D4A1278934213D003221F21A020FFF751
:1043B800A1FFFB7903F06003DAB2074B1A70064BD2
:1043C8001B785B09DBB21A461F218020FFF792FF9A
:1043D80000BF0837BD4680BD480C002080B582B0BC
:1043E80000AF0346FB71FB791846FFF7D1FFFB7955
:1043F80019460020FFF7A0FF034618460837BD46B8
:1044080080BD80B582B000AF03460A46FB711346F3
:10441800BB71FB791846FFF7BBFFBA79FB791946E0
:104428004020FFF767FF00BF0837BD4680BD80B555
:1044380082B000AF03460A46FB711346BB80BB88B7
:10444800DAB2FB7911461846FFF7DBFFFB79013337
:10445800DAB2BB881B0A9BB2DBB219461046FFF7DB
:10446800D0FF00BF0837BD4680BD80B485B000AF1F
:1044780078600B467B8013467B700023FB607B785B
:10448800012B07D1FB681133FB607A88FB68134462
:10449800083BFB607B78022B19D1FB680633FB6075
:1044A8007A88FB681344083BFB6010E07B681B7844
:1044B8001B027A680132127813439BB2FA681344DC
:1044C800FB607B6802337B607B88023B7B807B8858
:1044D800012BEBD87B88002B0CD07B681B781B0248
:1044E800FA681344FB6005E0FB689AB2FB681B0C92
:1044F8001344FB60FB681B0C002BF5D1FB689BB2D7
:10450800DB439BB218461437BD465DF8047B704701
:1045180080B584B000AF78607B68183300221A70C9
:104528007B68193300221A707B68143340221A7092
:104538007B68153300221A707B68163340221A7084
:104548007B680E33002214211846FFF78EFF0346BE
:10455800FB81FB891B0A9AB27B681833D2B21A70A6
:104568007B681933FA89D2B21A7000BF1037BD467A
:1045780080BD80B582B000AF03463960FB8011E092
:104588001C20FFF72BFF034603F00203002B09D082
:1045980080221F218020FFF7ADFE80221F21A0204E
:1045A800FFF7A8FE1F210020FFF7C6FE034603F011
:1045B8000803002BE4D141F6FF110220FFF737FF73
:1045C800FB8803F5CF531F339BB219460620FFF72C
:1045D8002EFF002200217A20FFF78CFEFB88396825
:1045E800184600F009F808221F218020FFF782FEF4
:1045F80000BF0837BD4680BD80B582B000AF034616
:104608003960FB80FFF73AFE7A20FFF74FFE06E09D
:104618003B685A1C3A601B781846FFF747FEFB8830
:104628005A1EFA80002BF3D1FFF734FE00BF08377B
:10463800BD4680BD80B485B000AF78600023FB73B1
:104648000BE0FB7B1A331A467B681A44FB7B117814
:10465800074AD154FB7B0133FB73FB7B032BF0D957
:10466800002318461437BD465DF8047B704700BF29
:10467800FC0C002080B485B000AF78600023FB817B
:104688007B6893F822200D4B1A707B6893F82320DF
:104698000A4B5A70094B1B78FB81FB891B02FB8173
:1046A800064B5B789AB2FB891344FB81FB89184659
:1046B8001437BD465DF8047B704700BF400C0020EE
:1046C80080B485B000AF78600023FB730BE0FB7B00
:1046D80006331A467B681A44FB7B1178074AD15483
:1046E800FB7B0133FB73FB7B052BF0D900231846BA
:1046F8001437BD465DF8047B704700BFA40C00204A
:1047080080B485B000AFF8600B467A607B810CE01E
:104718007B681A78FB681A70FB680133FB607B685A
:1047280001337B607B89013B7B817B89002BEFD147
:1047380000BF00BF1437BD465DF8047B704700001A
:1047480080B586B000AFF8607A601A460B467B8168
:1047580013463B810023FB7512E0FA7DFB7DF96867
:104768000B4436498A5C1A70FA7DFB7D063319467C
:10477800FB680B4432498A5C1A70FB7D0133FB7578
:10478800FB7D052BE9D9FB680C3308221A70FB68FE
:104798000D3300221A70FB680E332A4A0921184685
:1047A800FFF7AEFFFB68103300221A70FB6817335F
:1047B80011221A700023FB7515E0FB7D7A681A44F4
:1047C800FB7D1E331946FB680B4412781A70FA7D7C
:1047D800FB7D1A331946FB680B441B498A5C1A7027
:1047E800FB7D0133FB75FB7D032BE6D93B891B0A57
:1047F8009AB2FB682433D2B21A70FB6825333A891F
:10480800D2B21A707B891B0A9AB2FB682233D2B2E1
:104818001A70FB6823337A89D2B21A70FB68263380
:1048280000221A70FB68283300221A70FB682933AB
:1048380000221A7000BF1837BD4680BDA40C0020A6
:10484800D0220020C0BA0008CC22002080B584B055
:1048580000AF78600B467B807B881C331A127B681C
:104868001033D2B21A707B88DAB27B6811331C32EB
:10487800D2B21A707868FFF74BFE7B8808331A1299
:104888007B682633D2B21A707B88DAB27B6827330A
:104898000832D2B21A707B6803F11A007B88103391
:1048A8009BB201221946FFF7E0FD0346FB81FB8915
:1048B8001B0A9AB27B682833D2B21A707B682933F4
:1048C800FA89D2B21A707B882A339BB27968184663
:1048D800FFF74FFE00BF1037BD4680BD80B586B0DC
:1048E80000AFF860B96011461A460B46FB801346C4
:1048F800BB80BB8CB9883A6AF868FFF721FF0023B0
:10490800FB75FB88DC2B01D9DC23FB800023FB75BE
:104918000CE0FB7DBA681A44FB7D2A331946FB6814
:104928000B4412781A70FB7D0133FB75FB7D9BB23B
:10493800FA889A42EDD8FB881946F868FFF786FF8F
:1049480000BF1837BD4680BD80B582B000AF786023
:104958007B681A783A4B1A707B685A78384B5A70C9
:104968007B689A1C364B023311464822184607F0DA
:1049780075F87B6893F84A20314B83F84A207B68A6
:1049880093F84B202E4B83F84B207B6893F84C20F0
:104998002B4B83F84C207B6893F84D20284B83F8E9
:1049A8004D207B6893F84E20254B83F84E207B687A
:1049B80093F84F20224B83F84F20224B1B78012B72
:1049C80029D12148FFF736FE1F48FFF779FE1E4818
:1049D800FFF750FE03461A461C4B1A801A4B93F8F1
:1049E80025201B4B1A70184B93F82420184B5A702B
:1049F800174801F0A5FF0346164A136000F0B0F906
:104A08000346002B17D002F06DF80346002B12D096
:104A180000F01AFA0FE00B4B1B78022B07D0094B5A
:104A28001B78002B03D0074B1B78032B03D100F016
:104A38000BFA02F057F800BF0837BD4680BD00BF2B
:104A4800AC0C0020C8220020241E00200A0C0020E4
:104A58004C0C0020500C002080B582B000AF002321
:104A68003B60124B9B783B70104BDB787B700F4B95
:104A78001B79BB700D4B5B79FB703B46184601F008
:104A88005FFF78607868FBF791FD084B1A78084B50
:104A98001A70074B34225A7000F0A2F900F07AF924
:104AA80000F004FB00BF0837BD4680BDAC0C0020F9
:104AB8007822002080B582B000AF104B1A78104BD6
:104AC8001A700F4B35225A70FBF77BFD03467B604B
:104AD80000233B603A1D3B461146184601F03EFF55
:104AE800084A3B68136000F07BF900F053F900F0C6
:104AF800DDFA00BF0837BD4680BD00BFAC0C002002
:104B0800782200207A22002080B500AFFBF760FDF4
:104B1800074B1A78074B1A70064B36225A7000F06A
:104B28005FF900F037F900F0C1FA00BF80BD00BF9F
:104B3800AC0C00207822002080B582B000AF174A64
:104B48003B4692E80300186004331980144B9B78A5
:104B58003B70134BDB787B70114B1B79BB70104B90
:104B68005B79FB700E4B9B793B710D4BDB797B714D
:104B78003B461846FBF7E6FE094B1A78094B1A70B4
:104B8800084B37225A7000F02BF900F003F900F0B7
:104B98008DFA00BF0837BD4680BD00BFB8BA00080F
:104BA800AC0C00207822002080B500AFFBF768FD30
:104BB8000A4B1A780A4B1A70094B38225A70094A5C
:104BC800094B1033196811609B88938000F008F92D
:104BD80000F0E0F800F06AFA00BF80BDAC0C0020DD
:104BE800782200207A220020000D002080B582B0B3
:104BF80000AF00233B60124B9B783B70104BDB7877
:104C08007B700F4B1B79BB700D4B5B79FB703B4680
:104C1800184601F095FE78607868FBF703FE084BAC
:104C28001A78084B1A70074B39225A7000F0D8F8D6
:104C380000F0B0F800F03AFA00BF0837BD4680BD72
:104C4800AC0C00207822002080B582B000AF104B59
:104C58001A78104B1A700F4B3C225A70FBF709FD5B
:104C680003467B6000233B603A1D3B4611461846CD
:104C780001F074FE084A3B68136000F0B1F800F0D8
:104C880089F800F013FA00BF0837BD4680BD00BFA1
:104C9800AC0C0020782200207A22002080B582B057
:104CA80000AF00233B60124B9B783B70104BDB78C6
:104CB8007B700F4B1B79BB700D4B5B79FB703B46D0
:104CC800184601F03DFE78607868FBF7F3FD084B65
:104CD8001A78084B1A70074B3A225A7000F080F87D
:104CE80000F058F800F0E2F900BF0837BD4680BD73
:104CF800AC0C00207822002080B584B000AF154BA2
:104D08001A78154B1A70144B3B225A70FBF7AAFC01
:104D1800F8600023BB60FB6807EE903AF8EE677A0C
:104D2800B0EE670A01F048FD03467B603A1D07F1C3
:104D380008031146184601F011FE084ABB681360C3
:104D480000F04EF800F026F800F0B0F900BF103778
:104D5800BD4680BDAC0C0020782200207A220020BD
:104D680080B400AF094B1B78012B09D1084B1B6895
:104D78004EF27862934201D1012302E0002300E061
:104D880000231846BD465DF8047B7047C822002002
:104D9800500C002080B596B000AF0F4A07F10C0305
:104DA80011464C22184606F059FE07F10C034C2117
:104DB800184601F061FE0346BB6007F108023B1D7F
:104DC8001146184601F0CAFD044A7B68136000BF0B
:104DD8005837BD4680BD00BF78220020C42200207D
:104DE80080B582B000AF01233B603A463B1D1146B7
:104DF800184601F0B3FD3A79054B83F84A207A79D1
:104E0800034B83F84B2000BF0837BD4680BD00BF69
:104E18007822002080B582B000AF06233B603A4676
:104E28003B1D1146184601F099FD3A79054B83F868
:104E38004A207A79034B83F84B2000BF0837BD46D8
:104E480080BD00BF7822002080B500AF964B5B780C
:104E5800013B3D2B00F2258101A252F823F000BF4F
:104E68009D4F0008A34F0008A94F0008AF4F000846
:104E7800B54F0008BB4F0008C14F0008C74F0008D6
:104E8800CD4F0008D34F0008D94F0008DF4F000866
:104E9800E54F0008EB4F0008F74F0008FD4F0008EA
:104EA80003500008095000080F500008155000086A
:104EB8001B50000821500008275000082D500008FA
:104EC80033500008AB500008AB500008AB50000846
:104ED800AB500008AB500008AB5000083950000830
:104EE8003F500008455000084B500008515000083A
:104EF800575000085D5000086350000869500008CA
:104F08006F500008755000087B5000088150000859
:104F1800875000088D5000089350000899500008E9
:104F28009F500008A5500008AB500008614F0008CA
:104F3800674F00086D4F0008734F0008794F00084D
:104F48007F4F0008854F00088B4F0008914F0008DD
:104F5800974F0008F14F0008FFF77EFDA1E0FFF72B
:104F6800A9FD9EE0FFF7D0FD9BE0FFF7E5FD98E087
:104F7800FFF71AFE95E0FFF739FE92E0FFF78EFE85
:104F88008FE0FFF7B9FE8CE0FFF75EFE89E000F0E6
:104F9800D3F886E000F01EF983E000F0F5F880E031
:104FA80000F048F97DE000F075F97AE000F09EF92C
:104FB80077E000F0C3F974E000F0E8F971E000F080
:104FC8000BFA6EE000F0E2FA6BE000F0C1FB68E07B
:104FD80000F01AFC65E000F045FC62E000F06EFCB1
:104FE8005FE000F0AFFC5CE000F01CFD59E000F071
:104FF80089FD56E000F05EFD53E000F0D3FD50E07F
:1050080000F0A8FD4DE000F0F5FD4AE000F020FEBC
:1050180047E000F045FE44E000F07AFE41E000F091
:10502800ADFE3EE000F0D2FE3BE000F0F7FE38E0D7
:1050380000F024FF35E000F04DFF32E000F076FF8D
:105048002FE000F09FFF2CE000F0C8FF29E001F0FE
:1050580085F826E001F0AAF823E001F0CFF820E077
:1050680001F0F4F81DE001F021F91AE001F04AF925
:1050780017E001F073F914E001F09CF911E001F078
:10508800C5F90EE001F082FA0BE001F0A7FA08E09A
:1050980001F0CCFA05E001F0F1FA02E001F060FB62
:1050A80000BF00BF80BD00BFAC0C002080B582B03F
:1050B80002AF194B1B78012B0CD1184B1B8801939D
:1050C800174B00934EF27863502216491648FFF7A3
:1050D80005FC1DE0104B1B78002B19D00E4B1B78DC
:1050E800022B0BD102F046FA4FF0FF3350220D4944
:1050F8000E4804F09EFF02F047FA09E0064B1B78C1
:10510800032B05D150230A4A06490A4804F012FC29
:1051180000BFBD4680BD00BFC82200200A0C002089
:10512800FC0C002078220020241E0020F02E0020F5
:10513800E42A0020C42C002080B582B000AF104BB8
:105148001A78104B1A700F4B3D225A7002237B605D
:1051580007E00C4A7B68134400221A707B6801330D
:105168007B607B68492BF4DDFFF73AFEFFF712FE00
:10517800FFF79CFFFBF72EFC00BF0837BD4680BD3C
:10518800AC0C00207822002080B582B000AF0F4B15
:105198001A780F4B1A700E4B02225A7002237B604A
:1051A80007E00B4A7B68134400221A707B680133BE
:1051B8007B607B68492BF4DDFFF712FEFFF7EAFD01
:1051C800FFF774FF00BF0837BD4680BDAC0C002058
:1051D8007822002080B582B000AFFBF701FC134BAA
:1051E8001A78134B1A70124B01225A7002237B60F3
:1051F80007E00F4A7B68134400221A707B6801336A
:105208007B607B68492BF4DDFFF7EAFDFFF7C2FD01
:10521800FFF74CFF054BDB78012B02D103F005FBB0
:1052280000E000BF0837BD4680BD00BFAC0C0020C1
:105238007822002080B582B000AF144B9878134BC9
:10524800D978124B1A79114B5B79FBF7DFFB0F4BBF
:105258001A780F4B1A700E4B03225A7002237B6088
:1052680007E00B4A7B68134400221A707B680133FD
:105278007B607B68492BF4DDFFF7B2FDFFF78AFD01
:10528800FFF714FF00BF0837BD4680BDAC0C0020F7
:105298007822002080B582B000AF124B1A78124BEA
:1052A8001A70114B04225A70FBF78CFC03461A46FD
:1052B8000D4B9A7003237B6007E00B4A7B6813440D
:1052C80000221A707B6801337B607B68492BF4DD10
:1052D800FFF786FDFFF75EFDFFF7E8FE00BF083722
:1052E800BD4680BDAC0C00207822002080B582B07D
:1052F80000AFFBF79BFC0F4B1A780F4B1A700E4B45
:1053080005225A7002237B6007E00B4A7B6813442E
:1053180000221A707B6801337B607B68492BF4DDBF
:10532800FFF75EFDFFF736FDFFF7C0FE00BF083749
:10533800BD4680BDAC0C00207822002080B582B02C
:1053480000AFFBF7A3FC0F4B1A780F4B1A700E4BEC
:1053580006225A7002237B6007E00B4A7B681344DD
:1053680000221A707B6801337B607B68492BF4DD6F
:10537800FFF736FDFFF70EFDFFF798FE00BF083771
:10538800BD4680BDAC0C00207822002080B582B0DC
:1053980000AF0F4B1A780F4B1A700E4B07225A703A
:1053A80002237B6007E00B4A7B68134400221A70D3
:1053B8007B6801337B607B68492BF4DDFFF710FDC8
:1053C800FFF7E8FCFFF772FE00BF0837BD4680BD57
:1053D800AC0C002078220020F0B59BB004AF00236D
:1053E800A7F8483007F1080340220021184606F0C4
:1053F80043FB614B1B78032B27D105237B6520E0FA
:105408005E4A7B6D13441B7887F848307B6D013307
:105418005A4AD35C87F849307B6D053BDA0F134451
:105428005B101C4607F14803184601F0A7FA03462B
:105438001A46630058333B4423F8502C7B6D0233E3
:105448007B657B6D432BDBDD58E04B4B1B78022BD8
:1054580027D105233B6520E0494A3B6D13441B785F
:1054680087F848303B6D0133454AD35C87F84930AB
:105478003B6D053BDA0F13445B101C4607F14803EC
:10548800184601F07BFA03461A46630058333B443A
:1054980023F8502C3B6D02333B653B6D432BDBDD22
:1054A8002CE0354B1B78012B28D10323FB6422E029
:1054B800344AFB6C134402331B7887F84830FB6C82
:1054C8000133304A13449B7887F84930FB6C033B1F
:1054D800DA0F13445B101C4607F14803184601F025
:1054E8004DFA03461A46630058333B4423F8502CC0
:1054F800FB6C0233FB64FB6C422BD9DD0023BB80C1
:10550800204B93F845303B711E4B93F846307B7126
:105518003B1D184601F032FA0346A7F84A30194BEA
:105528009878184BDC78174B1D79164B93F8473051
:10553800144A92F84820134991F8491007F10806CF
:10554800039102920193B7F84A30009333462A46F2
:105558002146FBF7C7FB0B4B1A780B4B1A700A4B0B
:1055680008225A70FFF73CFCFFF714FCFFF79EFD7A
:1055780000BF5C37BD46F0BDC8220020E42A0020E9
:105588001C2D0020AC0C002078220020F0B59BB028
:1055980004AF694B1B78002B40F0CA800023A7F8A2
:1055A800483007F1080340220021184606F064FA43
:1055B800624B1B78032B27D105237B6520E0604ACB
:1055C8007B6D13441B7887F848307B6D01335C4A48
:1055D800D35C87F849307B6D053BDA0F13445B10C9
:1055E8001C4607F14803184601F0C8F903461A4655
:1055F800630058333B4423F8502C7B6D02337B65A2
:105608007B6D432BDBDD58E04C4B1B78022B27D1FD
:1056180005233B6520E04B4A3B6D13441B7887F814
:1056280048303B6D0133474AD35C87F849303B6DBE
:10563800053BDA0F13445B101C4607F14803184674
:1056480001F09CF903461A46630058333B4423F89B
:10565800502C3B6D02333B653B6D432BDBDD2CE06F
:10566800364B1B78012B28D10323FB6422E0364AF2
:10567800FB6C134402331B7887F84830FB6C01330A
:10568800314A13449B7887F84930FB6C033BDA0FA7
:1056980013445B101C4607F14803184601F06EF9E5
:1056A80003461A46630058333B4423F8502CFB6CDE
:1056B8000233FB64FB6C422BD9DD0023BB80224BF9
:1056C80093F845303B71204B93F846307B713B1D76
:1056D800184601F053F90346A7F84A301A4B987850
:1056E800194BDC78184B1D79174B93F84730164A3D
:1056F80092F84820144991F8491007F108060391D7
:1057080002920193B7F84A30009333462A4621465D
:10571800FBF756FF0C4B1A780C4B1A700B4B0922EF
:105728005A70FFF75DFBFFF735FBFFF7BFFC00E0A2
:1057380000BF5C37BD46F0BD540C0020C8220020D5
:10574800E42A00201C2D0020AC0C00207822002028
:1057580080B586B000AF0023BB6000237B60284B78
:105768001B793B72264B5B797B72254B9B79BB720D
:10577800234BDB79FB7207F10803184601F0E0F8C8
:1057880038611F4B1B7A3B711D4B5B7A7B711C4B3D
:105798009B7ABB711A4BDB7AFB713B1D184601F0F3
:1057A800CFF8F860164B9878154BD978FB683A69AA
:1057B800FCF71EFA124B1A78124B1A70114B0A2278
:1057C8005A7003237B6107E00E4A7B691344002269
:1057D8001A707B6901337B617B69492BF4DD084BC7
:1057E8009B78012B02D9FFF715FB01E0FFF7F8FAC8
:1057F800FFF7D0FAFFF75AFC00BF1837BD4680BD47
:10580800AC0C00207822002080B582B000AF134B8A
:105818009B78124AD27811461846FCF7B3FC0F4B16
:105828001A780F4B1A700E4B0B225A7002237B60AA
:1058380007E00B4A7B68134400221A707B68013327
:105848007B607B68492BF4DDFFF7CAFAFFF7A2FA01
:10585800FFF72CFC00BF0837BD4680BDAC0C00200C
:105868007822002080B582B000AF124B1A78124B14
:105878001A70114B0C225A70FCF7B6FC03461A46F4
:105888000D4B9A7003237B6007E00B4A7B68134437
:1058980000221A707B6801337B607B68492BF4DD3A
:1058A800FFF79EFAFFF776FAFFF700FC00BF08370C
:1058B800BD4680BDAC0C00207822002080B584B0A5
:1058C80000AFFCF7B7FC786000233B800023FB6047
:1058D80012E0FB685B007A681A443B46114618469A
:1058E80001F05AF8FB685B000233144A13443A8803
:1058F8001A80FB680133FB60FB68072BE9DD104B5E
:105908001A780E4B1A700D4B0D225A701223BB6079
:1059180007E00A4ABB68134400221A70BB680133C7
:10592800BB60BB68492BF4DDFFF75AFAFFF732FA80
:10593800FFF7BCFB00BF1037BD4680BD78220020B2
:10594800AC0C002080B584B000AF314B01221A7036
:10595800FCF7C4FCB8600023BB802E4B1A782E4B92
:105968001A702D4B0E225A70BB681B88DAB22A4B6C
:105978009A70BB6802331B88DAB2274BDA70BB68AF
:1059880004331B88DAB2244B1A71BB689A1D3B1D7D
:105998001146184601F000F8204ABB881380BB68FE
:1059A80003F108023B1D1146184600F0F5FF1C4A9A
:1059B800BB881380BB680A331B88DAB2164B5A724D
:1059C8000023FB6013E0FB6806335B00BA681A44E7
:1059D8003B1D1146184600F0DFFFFB685B000A33E9
:1059E8000D4A1344BA881A80FB680133FB60FB68D0
:1059F8001F2BE8DDFFF7F4F9FFF7CCF9FFF756FBAB
:105A0800034B00221A7000BF1037BD4680BD00BF8F
:105A1800540C0020AC0C0020782200207D220020AD
:105A28007F22002080B584B000AF204B9B781F4AAE
:105A3800D27811461846FCF759FDB8600023BB80A0
:105A48001A4B9B78FB71194BDB78BB71174B1A7893
:105A5800174B1A70164B3E225A70154AFB799370F1
:105A6800134ABB79D3700023FB6012E0FB685B002C
:105A7800BA681A443B1D1146184600F08DFFFB68B2
:105A88005B0004330A4A1344BA881A80FB6801335E
:105A9800FB60FB681F2BE9DDFFF7A2F9FFF77AF936
:105AA800FFF704FB00BF1037BD4680BDAC0C0020DB
:105AB8007822002080B582B000AFFCF7EFFD0F4BD5
:105AC8001A780F4B1A700E4B10225A7002237B6003
